:1000000000308A00F2280000CA3AEC346F10C33284
:10001000F33072050D00CA34ED32EE327A10C23779
:10002000EC346F050D00D634633A6F39A026613782
:10003000F5326C050D00D330EE31E8327A10D33052
:10004000EE31E8327A050D00CC327439611DA01210
:1000500063050D000B08A2008B13831603178C1782
:100060000C140000000083120313A21B8B1703174C
:100070000C087F39031980280313A20003170D0809
:100080000313A30003170F080313A40022080C1E78
:1000900047289900230803178D000313240803172A
:1000A0008F0003130B08A5008B13831603178C17FF
:1000B0000C140000000083120313A51B8B170317F9
:1000C0000C0D0E0D7F39031980280313A2000317AE
:1000D0000D080313A30003170F080313A40022083D
:1000E0000C1E70289900230803178D0003132408A1
:1000F00003178F008D0A03198F0A03132A28031789
:100100000313080023308400831300080319962882
:100110000130F800F701F70B8B28F80B8A284A30DA
:10012000F700F70B91289428800B882808000B080B
:10013000A3008B13831603178C170C140000000008
:1001400083120313A31B8B170318CF2803170C0864
:100150007F390313A30003170D080313A40003172B
:100160000F080313A50023080C1EB42899002408C7
:1001700003178D000313250803178F0003130B08C3
:10018000A6008B13831603178C170C1400000000B5
:1001900083120313A61B8B17A20BCF28EF2803177C
:1001A0000C0D0E0D7F390313A30003170D08031365
:1001B000A40003170F080313A50023080C1EDE2854
:1001C0009900240803178D000313250803178F00D7
:1001D0008D0A03198F0A03100313A20B97288A11A3
:1001E0000A125F2903081F398300613083168F00CC
:1001F0000F088312A0018316031787111930031308
:100200009900A63098009030831298008316031747
:100210000908C039890003131F129F120030031709
:1002200088008312870188018901831304308D00BF
:1002300000308F0003132A200B3003178D0000308D
:100240008F0003132A200A300C1E242999000D3038
:100250000C1E282999000430A200FA30A300822045
:10026000A20B2D29133003178D0000308F000313CC
:100270002A201B3003178D0000308F0003132A2023
:100280000A300C1E412999000D300C1E4529990099
:100290000430A200FA30A3008220A20B4A29413088
:1002A000A10021085A3C031C7429243003178D0037
:1002B00000308F00031007300313A2009728210895
:1002C0000C1E602999000A300C1E642999000D301B
:1002D0000C1E682999000430A200FA30A300822085
:0E02E000A20B6D29A10A5129031716296300EC
:04400E00A42CFF3FA0
:00000001FF
;PIC16F887
;CRC=1AFC  CREATED="27-May-20 00:33"
